:100000000C942A000C9447000C9447000C94470071
:100010000C9447000C9447000C945E1E0C94041E34
:100020000C94311E0C94D71D0C9447000C9447007F
:100030000C94401C0C9447000C9447000C9447000F
:100040000C94A6080C9447000C9447000C944700AD
:100050000C94470011241FBECFE5D8E0DEBFCDBF12
:1000600011E0A0E6B0E0ECEFF3E402C005900D92E1
:10007000AC3AB107D9F711E0ACEAB1E001C01D928A
:10008000AC3BB107E1F70E94231F0C94FC210C94B8
:100090000000EF92FF920F931F937B018C0120E0F1
:1000A00030E040E05FE40E94F50388238CF0C80153
:1000B000B70120E030E040E05FE40E94C1010E940F
:1000C000B3049B01AC01205030404040504806C072
:1000D000C801B7010E94B3049B01AC01B901CA0178
:1000E0001F910F91FF90EF900895A0E0B0E0EBE733
:1000F000F0E00C94C521DC012B01FA019C919230B7
:1001000008F439C1EB018881823008F433C194309E
:1001100069F4843009F02FC111969C91119789815F
:10012000981709F428C1A7E7B0E025C1843009F485
:1001300021C18230A9F4923009F01DC19A01AD01AC
:1001400088E0EA010990AE01E90109929E0181501F
:10015000C1F7E201898111969C918923818308C1AD
:10016000923009F407C112962D903C901397EB0141
:100170008A819B811496AD90BD90CD90DC901797AD
:10018000EC80FD800E811F819101281B390BB90184
:1001900037FF04C066277727621B730B6032710537
:1001A0000CF061C0121613066CF537014801062EDB
:1001B00004C096948794779467940A94D2F721E0C8
:1001C00030E040E050E004C0220F331F441F551FB1
:1001D0006A95D2F721503040404050402E213F21B7
:1001E00040235123211531054105510521F021E01E
:1001F00030E040E050E079018A01E628F72808293C
:1002000019293CC0232BD1F1260E371E350146019A
:10021000062E04C096948794779467940A94D2F734
:1002200021E030E040E050E004C0220F331F441FC3
:10023000551F6A95D2F721503040404050402A2146
:100240003B214C215D21211531054105510521F04E
:1002500021E030E040E050E059016A01A628B728CB
:10026000C828D9280BC0821593052CF01C01AA249C
:10027000BB24650103C0EE24FF24870111969C91E5
:10028000D20111968C91981709F445C0992339F041
:10029000A80197012A193B094C095D0906C0A6016E
:1002A00095012E193F09400B510B57FD08C01182D3
:1002B0003382228224833583468357831DC081E0A5
:1002C00081833382228288279927DC01821B930B4A
:1002D000A40BB50B84839583A683B7830DC0220F2F
:1002E000331F441F551F24833583468357838281E0
:1002F000938101979383828324813581468157813D
:10030000DA01C9010197A109B1098F5F9F4FAF4F72
:10031000BF4328F30BC0918333822282EA0CFB1C7B
:100320000C1D1D1DE482F5820683178383E0808304
:10033000248135814681578157FF1AC0C901AA27F8
:1003400097FDA095BA2F81709070A070B0705695EF
:10035000479537952795822B932BA42BB52B848318
:100360009583A683B7838281938101969383828349
:10037000DF0101C0D201CD01CDB7DEB7E2E10C94BF
:10038000E121A0E2B0E0E7ECF1E00C94D121698337
:100390007A838B839C832D833E834F835887E9E048
:1003A000EE2EF12CEC0EFD1ECE010196B7010E943F
:1003B000A4068E010F5E1F4FCE010596B8010E9464
:1003C000A4068A8991E089278A8BC701B801AE010A
:1003D000475E5F4F0E9475000E94CF05A096E6E041
:1003E0000C94ED21A0E2B0E0E8EFF1E00C94D12113
:1003F00069837A838B839C832D833E834F835887C5
:10040000F9E0EF2EF12CEC0EFD1ECE010196B701A6
:100410000E94A4068E010F5E1F4FCE010596B80103
:100420000E94A406C701B801AE01475E5F4F0E945B
:1004300075000E94CF05A096E6E00C94ED21A0E2A5
:10044000B0E0E5E2F2E00C94C52169837A838B8306
:100450009C832D833E834F835887CE010196BE0136
:10046000675F7F4F0E94A406CE010596BE016F5EB6
:100470007F4F0E94A4069985923088F08989823046
:10048000C8F0943019F4823051F404C0843029F457
:10049000923081F487E790E0C6C0923049F420E0C2
:1004A0009A858A89981321E02A87CE010996BBC0D4
:1004B000823049F420E09A858A89981321E02A8BBA
:1004C000CE014196B0C02D843E844F8458886D88FB
:1004D0007E888F88988CEE24FF248701AA24BB2471
:1004E000650140E050E060E070E0E0E0F0E0C10174
:1004F00081709070892BE9F0E60CF71C081D191D1E
:100500009A01AB012A0D3B1D4C1D5D1D80E090E062
:10051000A0E0B0E0E614F7040805190520F481E036
:1005200090E0A0E0B0E0BA01A901480F591F6A1F8E
:100530007B1FAA0CBB1CCC1CDD1C97FE08C081E0F5
:1005400090E0A0E0B0E0A82AB92ACA2ADB2A3196B6
:10055000E032F10549F0660C771C881C991C569412
:10056000479437942794C3CFFA85EA892B893C892D
:100570008B859C85280F391F2E5F3F4F17C0CA01FE
:1005800081709070892B61F016950795F794E79428
:1005900080E090E0A0E0B0E8E82AF92A0A2B1B2BC3
:1005A00076956795579547952F5F3F4F77FDE7CF36
:1005B0000CC0440F551F661F771F17FD4160EE0CDE
:1005C000FF1C001F111F21503040403090E05907A0
:1005D00090E0690790E4790760F32B8F3C8FDB0193
:1005E000CA018F779070A070B07080349105A1051A
:1005F000B10561F447FD0AC0E114F10401051105DC
:1006000029F0405C5F4F6F4F7F4F40781A8EFE1786
:1006100011F081E08A8F4D8F5E8F6F8F78A383E01A
:10062000898FCE0149960E94CF05A096E2E10C94F5
:10063000E121A8E1B0E0EFE1F3E00C94CD21698382
:100640007A838B839C832D833E834F835887B9E0C5
:10065000EB2EF12CEC0EFD1ECE010196B7010E948F
:10066000A4068E010F5E1F4FCE010596B8010E94B1
:10067000A4062985223008F47EC03989323010F46E
:10068000B8017CC08A859A8989278A87243011F02D
:10069000223031F4231709F06EC067E770E06EC0B6
:1006A000343039F41D861E861F86188A1C861B86E8
:1006B00004C0323021F484E08987B7015FC02B8504
:1006C0003C858B899C89281B390B3C872B87ED84C3
:1006D000FE840F851889AD88BE88CF88D88CEA142F
:1006E000FB040C051D0540F4EE0CFF1C001F111F40
:1006F000215030403C872B8720E030E040E050E044
:1007000080E090E0A0E0B0E460E070E0EA14FB0478
:100710000C051D0540F0282B392B4A2B5B2BEA18C2
:10072000FB080C091D09B695A79597958795EE0CC2
:10073000FF1C001F111F6F5F7F4F6F31710531F775
:10074000DA01C9018F779070A070B0708034910584
:10075000A105B10561F427FD0AC0E114F10401050A
:10076000110529F0205C3F4F4F4F5F4F20782D87B8
:100770003E874F87588BBE01675F7F4FCB010E943A
:10078000CF056896EAE00C94E921A8E1B0E0EBEC33
:10079000F3E00C94D12169837A838B839C832D832E
:1007A0003E834F83588789E0E82EF12CEC0EFD1E26
:1007B000CE010196B7010E94A4068E010F5E1F4F65
:1007C000CE010596B8010E94A4068985823040F0CA
:1007D0008989823028F0C701B8010E941C0701C036
:1007E0008FEF6896E6E00C94ED21A8E1B0E0EBEF26
:1007F000F3E00C94D12169837A838B839C832D83CE
:100800003E834F83588789E0E82EF12CEC0EFD1EC5
:10081000CE010196B7010E94A4068E010F5E1F4F04
:10082000CE010596B8010E94A4068985823040F069
:100830008989823028F0C701B8010E941C0701C0D5
:100840008FEF6896E6E00C94ED21A8E1B0E0EBE2D2
:10085000F4E00C94D12169837A838B839C832D836C
:100860003E834F83588789E0E82EF12CEC0EFD1E65
:10087000CE010196B7010E94A4068E010F5E1F4FA4
:10088000CE010596B8010E94A4068985823040F009
:100890008989823028F0C701B8010E941C0701C075
:1008A00081E06896E6E00C94ED21A8E0B0E0EBE58D
:1008B000F4E00C94CE219B01AC0183E08983DA0142
:1008C000C9018827B7FD83959927AA27BB27B82E8A
:1008D000211531054105510519F482E089833AC09B
:1008E0008823A9F0203080E0380780E0480780E8BE
:1008F000580729F460E070E080E09FEC30C0EE24FF
:10090000FF248701E21AF30A040B150B02C07901D8
:100910008A018EE1C82ED12CDC82CB82ED82FE8250
:100920000F831887C801B7010E9480050197181628
:10093000190684F4082E04C0EE0CFF1C001F111FC2
:100940000A94D2F7ED82FE820F831887C81AD90A5B
:10095000DC82CB82BA82CE0101960E94CF05289616
:10096000E9E00C94EA21ACE0B0E0E9EBF4E00C94AF
:10097000D52169837A838B839C83CE010196BE0146
:100980006B5F7F4F0E94A4068D81823061F18230BF
:1009900050F1843021F48E81882351F12EC02F81B3
:1009A000388537FD20C06E812F3131051CF066235C
:1009B000F9F023C08EE190E0821B930B29853A85E4
:1009C0004B855C8504C056954795379527958A9544
:1009D000D2F76623B1F050954095309521953F4F61
:1009E0004F4F5F4F0EC020E030E040E050E009C0C4
:1009F0002FEF3FEF4FEF5FE704C020E030E040E033
:100A000050E8B901CA012C96E2E00C94F121A8E06B
:100A1000B0E0EDE0F5E00C94CD217B018C01611597
:100A200071058105910519F482E0898360C083E036
:100A300089838EE1C82ED12CDC82CB82ED82FE82AE
:100A40000F831887C801B7010E948005FC01319708
:100A5000F7FF3BC0222733272E1B3F0B57016801AE
:100A6000022E04C0D694C794B794A7940A94D2F7E0
:100A700040E050E060E070E081E090E0A0E0B0E0B5
:100A800004C0880F991FAA1FBB1F2A95D2F7019790
:100A9000A109B1098E219F21A023B1230097A105AF
:100AA000B10521F041E050E060E070E04A295B29A7
:100AB0006C297D294D835E836F8378878EE190E07A
:100AC0008E1B9F0B9C838B8312C0309781F00E2E60
:100AD00004C0EE0CFF1C001F111F0A94D2F7ED8218
:100AE000FE820F831887CE1ADF0ADC82CB821A823D
:100AF000CE0101960E94CF052896EAE00C94E921E8
:100B0000EF92FF920F931F937B018C0180E0E81618
:100B100080E0F80681E0080780E0180788F48FEF8E
:100B2000E816F1040105110531F028F088E090E0A5
:100B3000A0E0B0E017C080E090E0A0E0B0E012C01C
:100B400080E0E81680E0F80680E0080781E01807FA
:100B500028F088E190E0A0E0B0E004C080E190E0FF
:100B6000A0E0B0E020E230E040E050E0281B390B8C
:100B70004A0B5B0B04C016950795F794E7948A958A
:100B8000D2F7F701E158FF4F8081281B3109410955
:100B90005109C9011F910F91FF90EF900895DF92C5
:100BA000EF92FF920F931F93FC01E480F580068182
:100BB0001781D1808081823048F480E090E0A0E10C
:100BC000B0E0E82AF92A0A2B1B2BA5C0843009F4CF
:100BD0009FC0823021F4EE24FF24870105C0E11478
:100BE000F1040105110519F4E0E0F0E096C062811E
:100BF00073819FEF623879070CF05BC022E83FEF0A
:100C0000261B370B2A3131052CF020E030E040E084
:100C100050E02AC0B801A701022E04C0769567955E
:100C2000579547950A94D2F781E090E0A0E0B0E0B4
:100C300004C0880F991FAA1FBB1F2A95D2F70197DE
:100C4000A109B1098E219F21A023B1230097A105FD
:100C5000B10521F081E090E0A0E0B0E09A01AB01A5
:100C6000282B392B4A2B5B2BDA01C9018F77907027
:100C7000A070B07080349105A105B10539F427FF4B
:100C800009C0205C3F4F4F4F5F4F04C0215C3F4F76
:100C90004F4F5F4FE0E0F0E02030A0E03A07A0E0E7
:100CA0004A07A0E45A0710F0E1E0F0E079018A0178
:100CB00027C06038710564F5FB01E158FF4FD8018A
:100CC000C7018F779070A070B07080349105A10536
:100CD000B10539F4E7FE0DC080E490E0A0E0B0E09B
:100CE00004C08FE390E0A0E0B0E0E80EF91E0A1F18
:100CF0001B1F17FF05C016950795F794E7943196CB
:100D000087E016950795F794E7948A95D1F705C083
:100D1000EE24FF248701EFEFF0E06E2F6795662742
:100D20006795902F9F77D794DD24D7948E2F869543
:100D3000492F462B582F5D29B701CA011F910F91EA
:100D4000FF90EF90DF900895FC01DB01408151811D
:100D50002281622F6F7770E0221F2227221F93814A
:100D6000892F880F822B282F30E0991F9927991FF0
:100D700011969C93119721153105A9F5411551053F
:100D80006105710511F482E037C082E89FEF139688
:100D90009C938E9312979A01AB0167E0220F331F49
:100DA000441F551F6A95D1F783E08C930DC0220F25
:100DB000331F441F551F12968D919C9113970197D5
:100DC00013969C938E931297203080E0380780E032
:100DD000480780E4580758F314962D933D934D939C
:100DE0005C93179708952F3F310579F4411551050C
:100DF0006105710519F484E08C93089564FF03C0C4
:100E000081E08C9312C01C9210C02F573040139673
:100E10003C932E93129783E08C9387E0440F551FE9
:100E2000661F771F8A95D1F7706414964D935D9372
:100E30006D937C93179708951F93DC01FB019C91A0
:100E4000923008F447C08081823008F443C0943067
:100E500051F411961C91843099F58181682F70E0CE
:100E6000611B71093FC0843021F0923031F482302F
:100E7000B9F18181882389F12DC011961C911197B8
:100E80008230F1F081811817D9F412962D913C919E
:100E90001397828193818217930794F0281739075B
:100EA000BCF014968D919D910D90BC91A02D248144
:100EB000358146815781281739074A075B0718F49F
:100EC000112341F00AC082179307A407B50740F425
:100ED000112319F061E070E005C06FEF7FEF02C0F1
:100EE00060E070E0CB011F910895DF93CF93CDB701
:100EF000DEB7A7E2B0E0E7E2F0E080818F778C9385
:100F0000A7E2B0E0E7E2F0E0808180648C93A7E2A2
:100F1000B0E0E7E2F0E080818F7D8C93A7E2B0E063
:100F2000E7E2F0E080818C93A6E2B0E0E6E2F0E058
:100F3000808180628C93A0E5B0E0E0E5F0E0808104
:100F40008C93A6E2B0E0E6E2F0E0808181608C93D1
:100F500085EE98E09093AD018093AC01A6E2B0E0FD
:100F6000E6E2F0E08081877F8C93A6E2B0E0E6E2E3
:100F7000F0E0808180618C93CF91DF910895DF93C1
:100F8000CF93CDB7DEB7A6E2B0E0E6E2F0E0808135
:100F900080688C93CF91DF910895DF93CF93CDB785
:100FA000DEB7A6E2B0E0E6E2F0E080818F778C93D6
:100FB000CF91DF910895DF93CF93CDB7DEB7A6E24F
:100FC000B0E0E6E2F0E0808188608C93CF91DF9121
:100FD0000895DF93CF93CDB7DEB7A6E2B0E0E6E2A7
:100FE000F0E08081877F8C93CF91DF910895DF932C
:100FF000CF9300D0CDB7DEB79A83898389819A8158
:101000009093AD018093AC010F900F90CF91DF9141
:101010000895DF93CF9300D0CDB7DEB7A6E2B0E05E
:10102000E6E2F0E0808180648C93E6E2F0E080818B
:1010300082958F70882F90E0817090700097A9F34F
:10104000E4E2F0E08081282F30E0E5E2F0E080810A
:10105000882F90E0982F8827822B932B9A8389835F
:10106000A6E2B0E0E6E2F0E0808180618C938981C5
:101070009A810F900F90CF91DF910895DF93CF93D6
:10108000CDB7DEB7A6E2B0E0E6E2F0E080818064B2
:101090008C93CF91DF910895DF93CF93CDB7DEB7D7
:1010A0008091AE019091AF01CF91DF910895DF93D0
:1010B000CF9300D000D000D0CDB7DEB79E838D8314
:1010C0008D819E81CC01A0E0B0E0BC01CD010E94E9
:1010D0000705DC01CB01BC01CD0120E030E040EA96
:1010E00050E40E941F02DC01CB01BC01CD0120E0D5
:1010F00030EC4FE754E40E941903DC01CB018983F3
:101100009A83AB83BC8389819A81AB81BC81BC010A
:10111000CD0126960FB6F894DEBF0FBECDBFCF919E
:10112000DF910895DF93CF930F92CDB7DEB7898318
:10113000A7E2B0E0E7E2F0E08081982F907E89811D
:10114000892B8C930F90CF91DF9108951F920F926E
:101150000FB60F9211242F933F934F935F936F938A
:101160007F938F939F93AF93BF93EF93FF93DF93FF
:10117000CF93CDB7DEB7E5E2F0E08081882F90E035
:10118000382F2227E4E2F0E08081882F90E0822B44
:10119000932B9093AF018093AE01E091AC01F0915D
:1011A000AD010995CF91DF91FF91EF91BF91AF9183
:1011B0009F918F917F916F915F914F913F912F916F
:1011C0000F900FBE0F901F901895DF93CF93CDB760
:1011D000DEB7CF91DF910895DF93CF93CDB7DEB720
:1011E000EAE3F0E08CEF8083E7E3F0E08FE48083D4
:1011F000E4E3F0E08FEF8083E1E3F0E08DEF8083C4
:10120000CF91DF910895DF93CF9300D000D00F925C
:10121000CDB7DEB78A836B8319828B81282F30E0AC
:101220003D832C838C819D81009709F477C02C81AC
:101230003D812130310509F0E6C08A818830A0F473
:10124000ABE3B0E0EBE3F0E08081482F8A81282F08
:1012500030E081E090E0022E02C0880F991F0A94CE
:10126000E2F7842B8C93D1C08A818830D0F08A81B8
:101270008031B8F4A8E3B0E0E8E3F0E08081482FE3
:101280008A81882F90E09C012770307081E090E087
:10129000022E02C0880F991F0A94E2F7842B8C93C8
:1012A000B4C08A818031D0F08A818831B8F4A5E356
:1012B000B0E0E5E3F0E08081482F8A81882F90E05C
:1012C0009C012770307081E090E0022E02C0880FF0
:1012D000991F0A94E2F7842B8C9397C08A818831F6
:1012E000D0F08A818032B8F4A2E3B0E0E2E3F0E02B
:1012F0008081482F8A81882F90E09C012770307070
:1013000081E090E0022E02C0880F991F0A94E2F754
:10131000842B8C937AC082E0898377C08A8188305D
:10132000A8F4ABE3B0E0EBE3F0E08081482F8A81E2
:10133000282F30E081E090E0022E02C0880F991F34
:101340000A94E2F7809584238C935FC08A81883069
:10135000D8F08A818031C0F4A8E3B0E0E8E3F0E09F
:101360008081482F8A81882F90E09C0127703070FF
:1013700081E090E0022E02C0880F991F0A94E2F7E4
:10138000809584238C9341C08A818031D8F08A81F2
:101390008831C0F4A5E3B0E0E5E3F0E08081482FB8
:1013A0008A81882F90E09C012770307081E090E066
:1013B000022E02C0880F991F0A94E2F780958423B9
:1013C0008C9323C08A818831D8F08A818032C0F41E
:1013D000A2E3B0E0E2E3F0E08081482F8A81882F29
:1013E00090E09C012770307081E090E0022E02C0F6
:1013F000880F991F0A94E2F7809584238C9305C087
:1014000082E0898302C082E0898389810F900F90F6
:101410000F900F900F90CF91DF910895DF93CF93AE
:1014200000D000D0CDB7DEB78A837C836B8319826E
:101430008B819C81009709F46EC08A818830A0F46A
:10144000E9E3F0E08081282F30E08A81882F90E066
:10145000A90102C0559547958A95E2F7CA018170A6
:10146000EB81FC81808359C08A818830C8F08A81F1
:101470008031B0F4E6E3F0E08081282F30E08A810B
:10148000882F90E087709070A90102C0559547950C
:101490008A95E2F7CA018170EB81FC8180833DC0AF
:1014A0008A818031C8F08A818831B0F4E3E3F0E0CA
:1014B0008081282F30E08A81882F90E0877090709B
:1014C000A90102C0559547958A95E2F7CA01817036
:1014D000EB81FC81808321C08A818831C8F08A81B8
:1014E0008032B0F4E0E3F0E08081282F30E08A81A0
:1014F000882F90E087709070A90102C0559547959C
:101500008A95E2F7CA018170EB81FC81808305C076
:1015100082E0898302C083E0898389810F900F90E4
:101520000F900F90CF91DF910895DF93CF9300D06C
:10153000CDB7DEB789836A8389816A810E940309F6
:101540000F900F90CF91DF9108950F931F93DF932A
:10155000CF9300D000D00F92CDB7DEB79C838B83A2
:101560006D831A828B819C81009709F43FC08D8125
:101570008132C8F5198232C08981282F30E0C90133
:10158000880F991F280F391F8B819C818C01020FB6
:10159000131F8981282F30E0C901880F991F280F58
:1015A000391F8B819C81FC01E20FF31F40818981EF
:1015B000282F30E0C901880F991F280F391F8B8110
:1015C0009C81FC01E20FF31F9181842F692F0E94FF
:1015D0000309F801828389818F5F898399818D81D5
:1015E000981750F205C082E08A8302C083E08A83A4
:1015F0008A810F900F900F900F900F90CF91DF91F5
:101600001F910F9108950F931F93DF93CF9300D0F5
:1016100000D00F92CDB7DEB79C838B836D831A8287
:101620008B819C81009709F440C08D818132D0F577
:10163000198233C08981282F30E0C901880F991F92
:10164000280F391F8B819C818C01020F131F898108
:10165000282F30E0C901880F991F280F391F8B816F
:101660009C81FC01E20FF31F40818981282F30E02B
:10167000C901880F991F280F391F8B819C81820F08
:10168000931F9C012F5F3F4F842FB9010E940E0AC8
:10169000F801828389818F5F898399818D81981771
:1016A00048F205C082E08A8302C083E08A838A818F
:1016B0000F900F900F900F900F90CF91DF911F918F
:1016C0000F910895DF93CF9300D000D00F92CDB744
:1016D000DEB78A836B8319828B81282F30E03D83AC
:1016E0002C838C819D81009709F477C02C813D81EA
:1016F0002130310509F0E6C08A818830A0F4AAE3E0
:10170000B0E0EAE3F0E08081482F8A81282F30E0C2
:1017100081E090E0022E02C0880F991F0A94E2F740
:10172000842B8C93D1C08A818830D0F08A8180311B
:10173000B8F4A7E3B0E0E7E3F0E08081482F8A81C6
:10174000882F90E09C012770307081E090E0022E9D
:1017500002C0880F991F0A94E2F7842B8C93B4C0BF
:101760008A818031D0F08A818831B8F4A4E3B0E076
:10177000E4E3F0E08081482F8A81882F90E09C018B
:101780002770307081E090E0022E02C0880F991F10
:101790000A94E2F7842B8C9397C08A818831D0F029
:1017A0008A818032B8F4A1E3B0E0E1E3F0E0808127
:1017B000482F8A81882F90E09C012770307081E04B
:1017C00090E0022E02C0880F991F0A94E2F7842B42
:1017D0008C937AC082E0898377C08A818830A8F4AC
:1017E000AAE3B0E0EAE3F0E08081482F8A81282F65
:1017F00030E081E090E0022E02C0880F991F0A9429
:10180000E2F7809584238C935FC08A818830D8F07A
:101810008A818031C0F4A7E3B0E0E7E3F0E08081A3
:10182000482F8A81882F90E09C012770307081E0DA
:1018300090E0022E02C0880F991F0A94E2F780956B
:1018400084238C9341C08A818031D8F08A81883189
:10185000C0F4A4E3B0E0E4E3F0E08081482F8A81A3
:10186000882F90E09C012770307081E090E0022E7C
:1018700002C0880F991F0A94E2F7809584238C9305
:1018800023C08A818831D8F08A818032C0F4A1E3F4
:10189000B0E0E1E3F0E08081482F8A81882F90E07A
:1018A0009C012770307081E090E0022E02C0880F0A
:1018B000991F0A94E2F7809584238C9305C082E0F7
:1018C000898302C082E0898389810F900F900F90F5
:1018D0000F900F90CF91DF910895DF93CF9300D0B9
:1018E000CDB7DEB78A8319828A818830A0F4ABE352
:1018F000B0E0EBE3F0E08081482F8A81282F30E0D0
:1019000081E090E0022E02C0880F991F0A94E2F74E
:1019100084278C9359C08A818830D0F08A818031A5
:10192000B8F4A8E3B0E0E8E3F0E08081482F8A81D2
:10193000882F90E09C012770307081E090E0022EAB
:1019400002C0880F991F0A94E2F784278C933CC049
:101950008A818031D0F08A818831B8F4A5E3B0E083
:10196000E5E3F0E08081482F8A81882F90E09C0198
:101970002770307081E090E0022E02C0880F991F1E
:101980000A94E2F784278C931FC08A818831D0F0B3
:101990008A818032B8F4A2E3B0E0E2E3F0E0808133
:1019A000482F8A81882F90E09C012770307081E059
:1019B00090E0022E02C0880F991F0A94E2F7842754
:1019C0008C9302C082E0898389810F900F90CF9120
:1019D000DF9108950F931F93DF93CF93CDB7DEB7B9
:1019E000C65CD0400FB6F894DEBF0FBECDBFFE017F
:1019F000EA53FF4F10820C94E417FE01EF53FF4FA0
:101A000080E090E0A0EFB1E480839183A283B38370
:101A10008E0103541F4FFE01EF53FF4F6081718110
:101A20008281938120E030E04AEF54E40E941F025B
:101A3000DC01CB01F80180839183A283B383FE0193
:101A4000E354FF4F608171818281938120E030E017
:101A500040E85FE30E942504882344F4FE01E55436
:101A6000FF4F81E090E09183808364C0FE01E354E6
:101A7000FF4F608171818281938120E03FEF4FE7CA
:101A800057E40E94C50318160CF043C0FE01EF5343
:101A9000FF4F608171818281938120E030E040E2DC
:101AA00051E40E941F02DC01CB018E0105541F4F3F
:101AB000BC01CD010E944900DC01CB01F8019183FA
:101AC00080831FC0FE01E754FF4F88EC90E09183B4
:101AD0008083FE01E754FF4F808191810197F1F7E8
:101AE000FE01E754FF4F91838083DE01A554BF4F71
:101AF000FE01E554FF4F80819181019711969C93DF
:101B00008E93FE01E554FF4F808191810097D1F6BD
:101B100028C08E0105541F4FFE01E354FF4F608122
:101B20007181828193810E944900DC01CB01F8011F
:101B300091838083DE01A954BF4FFE01E554FF4F1E
:101B40008081918111969C938E93FE01E954FF4F01
:101B5000808191810197F1F7FE01E954FF4F918354
:101B60008083FE01EA53FF4F8081282F30E0C901B6
:101B7000880F991F820F931F880F991F880F991F35
:101B8000FC01E158FE4F80818295869587708170B7
:101B9000813009F0BFC3FE01EA53FF4F8081282F37
:101BA00030E0C901880F991F820F931F880F991F7A
:101BB000880F991FFC01E158FE4F80818170882FAA
:101BC00090E0880F991F880F991F880F991F482F41
:101BD0004063FE01EA53FF4F8081282F30E0C901A6
:101BE000880F991F820F931F880F991F880F991FC5
:101BF000FC01E158FE4F808186958170882F90E02E
:101C0000880F991F880F991F842BFE01EB53FF4FFC
:101C10008083FE01EA53FF4FDE01AB53BF4F80814B
:101C20006C910E94F817FE01ED54FF4F80E090E0A8
:101C3000A0E8BFE380839183A283B3838E01015523
:101C40001F4FFE01ED54FF4F6081718182819381AE
:101C500020E030E04AEF54E40E941F02DC01CB0197
:101C6000F80180839183A283B383FE01E155FF4F86
:101C7000608171818281938120E030E040E85FE300
:101C80000E942504882344F4FE01E355FF4F81E0C0
:101C900090E09183808364C0FE01E155FF4F608135
:101CA00071818281938120E03FEF4FE757E40E94EA
:101CB000C50318160CF043C0FE01ED54FF4F6081C0
:101CC00071818281938120E030E040E251E40E9402
:101CD0001F02DC01CB018E0103551F4FBC01CD015A
:101CE0000E944900DC01CB01F801918380831FC071
:101CF000FE01E555FF4F88EC90E091838083FE0163
:101D0000E555FF4F808191810197F1F7FE01E5557F
:101D1000FF4F91838083DE01A355BF4FFE01E35542
:101D2000FF4F80819181019711969C938E93FE01C4
:101D3000E355FF4F808191810097D1F627C08E0136
:101D400003551F4FFE01E155FF4F60817181828174
:101D500093810E944900DC01CB01F80191838083CB
:101D6000DE01A755BF4FFE01E355FF4F80819181F2
:101D70008D939C93FE01E755FF4F808191810197E0
:101D8000F1F7FE01E755FF4F91838083FE01EA538F
:101D9000FF4F8081282F30E0C901880F991F820FE3
:101DA000931F880F991F880F991FFC01E158FE4F60
:101DB0008081869586958170882F90E0880F991F85
:101DC000880F991F482F4860FE01EA53FF4F80811A
:101DD000282F30E0C901880F991F820F931F880FA9
:101DE000991F880F991FFC01E158FE4F808186954D
:101DF000869586958170882F90E0880F991F482BD3
:101E0000FE01EA53FF4F8081282F30E0C901880F7F
:101E1000991F820F931F880F991F880F991FFC012C
:101E2000E158FE4F808182958F708170842BFE0176
:101E3000EB53FF4F8083FE01EA53FF4FDE01AB53AC
:101E4000BF4F80816C910E94F817FE01EB55FF4F48
:101E500080E090E0A0E8BFE380839183A283B38316
:101E60008E010F551F4FFE01EB55FF4F60817181B1
:101E70008281938120E030E04AEF54E40E941F0207
:101E8000DC01CB01F80180839183A283B383FE013F
:101E9000EF55FF4F608171818281938120E030E0B6
:101EA00040E85FE30E942504882344F4FE01E156E4
:101EB000FF4F81E090E09183808364C0FE01EF5585
:101EC000FF4F608171818281938120E03FEF4FE776
:101ED00057E40E94C50318160CF043C0FE01EB55F1
:101EE000FF4F608171818281938120E030E040E288
:101EF00051E40E941F02DC01CB018E0101561F4FED
:101F0000BC01CD010E944900DC01CB01F8019183A5
:101F100080831FC0FE01E356FF4F88EC90E0918361
:101F20008083FE01E356FF4F808191810197F1F795
:101F3000FE01E356FF4F91838083DE01A156BF4F20
:101F4000FE01E156FF4F80819181019711969C938C
:101F50008E93FE01E156FF4F808191810097D1F66B
:101F600027C08E0101561F4FFE01EF55FF4F6081C4
:101F70007181828193810E944900DC01CB01F801CB
:101F800091838083DE01A556BF4FFE01E156FF4FCE
:101F9000808191818D939C93FE01E556FF4F808156
:101FA00091810197F1F7FE01E556FF4F9183808300
:101FB000FE01EA53FF4F808161E00E94F817FE01A5
:101FC000E956FF4F80E090E0A0E0B0E48083918389
:101FD000A283B3838E010D561F4FFE01E956FF4FBA
:101FE000608171818281938120E030E04AEF54E486
:101FF0000E941F02DC01CB01F80180839183A28340
:10200000B383FE01ED56FF4F608171818281938120
:1020100020E030E040E85FE30E942504882344F498
:10202000FE01EF56FF4F81E090E09183808364C012
:10203000FE01ED56FF4F608171818281938120E026
:102040003FEF4FE757E40E94C50318160CF043C05A
:10205000FE01E956FF4F608171818281938120E00A
:1020600030E040E251E40E941F02DC01CB018E010E
:102070000F561F4FBC01CD010E944900DC01CB016E
:10208000F801918380831FC0FE01E157FF4F88EC68
:1020900090E091838083FE01E157FF4F8081918121
:1020A0000197F1F7FE01E157FF4F91838083DE0135
:1020B000AF56BF4FFE01EF56FF4F808191810197D0
:1020C00011969C938E93FE01EF56FF4F8081918174
:1020D0000097D1F627C08E010F561F4FFE01ED5617
:1020E000FF4F60817181828193810E944900DC01F0
:1020F000CB01F80191838083DE01A357BF4FFE011E
:10210000EF56FF4F808191818D939C93FE01E357A1
:10211000FF4F808191810197F1F7FE01E357FF4F57
:1021200091838083FE01EA53FF4F8081282F30E0A6
:10213000C901880F991F820F931F880F991F880F5D
:10214000991FFC01E158FE4F808182958695869506
:1021500083708170882F90E0880F991F482F44600A
:10216000FE01EA53FF4F8081282F30E0C901880F1C
:10217000991F820F931F880F991F880F991FFC01C9
:10218000E158FE4F8081881F8827881F842BFE011D
:10219000EB53FF4F8083FE01EA53FF4FDE01AB5349
:1021A000BF4F80816C910E94F817FE01E757FF4FE7
:1021B00080E090E0A0E0B0E480839183A283B383C9
:1021C0008E010B571F4FFE01E757FF4F6081718152
:1021D0008281938120E030E04AEF54E40E941F02A4
:1021E000DC01CB01F80180839183A283B383FE01DC
:1021F000EB57FF4F608171818281938120E030E055
:1022000040E85FE30E942504882344F4FE01ED5773
:10221000FF4F81E090E09183808364C0FE01EB5723
:10222000FF4F608171818281938120E03FEF4FE712
:1022300057E40E94C50318160CF043C0FE01E7578F
:10224000FF4F608171818281938120E030E040E224
:1022500051E40E941F02DC01CB018E010D571F4F7C
:10226000BC01CD010E944900DC01CB01F801918342
:1022700080831FC0FE01EF57FF4F88EC90E09183F1
:102280008083FE01EF57FF4F808191810197F1F725
:10229000FE01EF57FF4F91838083DE01AD57BF4FA3
:1022A000FE01ED57FF4F80819181019711969C931C
:1022B0008E93FE01ED57FF4F808191810097D1F6FB
:1022C0007AC68E010D571F4FFE01EB57FF4F6081FD
:1022D0007181828193810E944900DC01CB01F80168
:1022E00091838083DE01A158BF4FFE01ED57FF4F60
:1022F0008081918111969C938E93FE01E158FF4F4E
:10230000808191810197F1F7FE01E158FF4F9183A0
:10231000808351C6FE01EA53FF4F808160E20E9434
:10232000F817FE01E558FF4F80E090E0A0E8BFE31A
:1023300080839183A283B3838E0109581F4FFE01CE
:10234000E558FF4F608171818281938120E030E008
:102350004AEF54E40E941F02DC01CB01F8018083A4
:102360009183A283B383FE01E958FF4F608171819D
:102370008281938120E030E040E85FE30E94250401
:10238000882344F4FE01EB58FF4F81E090E09183F5
:10239000808364C0FE01E958FF4F608171818281B2
:1023A000938120E03FEF4FE757E40E94C5031816E2
:1023B0000CF043C0FE01E558FF4F608171818281BE
:1023C000938120E030E040E251E40E941F02DC01F2
:1023D000CB018E010B581F4FBC01CD010E9449005B
:1023E000DC01CB01F801918380831FC0FE01ED5811
:1023F000FF4F88EC90E091838083FE01ED58FF4F02
:10240000808191810197F1F7FE01ED58FF4F918393
:102410008083DE01AB58BF4FFE01EB58FF4F808138
:102420009181019711969C938E93FE01EB58FF4F7B
:10243000808191810097D1F627C08E010B581F4FE4
:10244000FE01E958FF4F60817181828193810E9472
:102450004900DC01CB01F80191838083DE01AF5894
:10246000BF4FFE01EB58FF4F808191818D939C936C
:10247000FE01EF58FF4F808191810197F1F7FE0136
:10248000EF58FF4F91838083FE01EA53FF4F808115
:1024900060E20E94F817FE01E359FF4F80E090E0F0
:1024A000A0E8BFE380839183A283B3838E010759A1
:1024B0001F4FFE01E359FF4F60817181828193813B
:1024C00020E030E04AEF54E40E941F02DC01CB011F
:1024D000F80180839183A283B383FE01E759FF4F04
:1024E000608171818281938120E030E040E85FE388
:1024F0000E942504882344F4FE01E959FF4F81E03E
:1025000090E09183808364C0FE01E759FF4F6081B2
:1025100071818281938120E03FEF4FE757E40E9471
:10252000C50318160CF043C0FE01E359FF4F60814C
:1025300071818281938120E030E040E251E40E9489
:102540001F02DC01CB018E0109591F4FBC01CD01D7
:102550000E944900DC01CB01F801918380831FC0F8
:10256000FE01EB59FF4F88EC90E091838083FE01E0
:10257000EB59FF4F808191810197F1F7FE01EB59F3
:10258000FF4F91838083DE01A959BF4FFE01E959B6
:10259000FF4F80819181019711969C938E93FE014C
:1025A000E959FF4F808191810097D1F627C08E01B4
:1025B00009591F4FFE01E759FF4F608171818281E8
:1025C00093810E944900DC01CB01F8019183808353
:1025D000DE01AD59BF4FFE01E959FF4F8081918166
:1025E0008D939C93FE01ED59FF4F8081918101975E
:1025F000F1F7FE01ED59FF4F91838083FE01EA530D
:10260000FF4F8081282F30E0C901880F991F820F6A
:10261000931F880F991F880F991FFC01E158FE4FE7
:1026200080818170882F90E09695982F88279795C4
:102630008795482FFE01EA53FF4F8081282F30E015
:10264000C901880F991F820F931F880F991F880F48
:10265000991FFC01E158FE4F808186958170882F7B
:1026600090E0002496958795079496958795079412
:10267000982F802D842BFE01EB53FF4F8083FE01AA
:10268000EA53FF4FDE01AB53BF4F80816C910E9434
:10269000F817FE01E15AFF4F80E090E0A0E8BFE3A9
:1026A00080839183A283B3838E01055A1F4FFE015D
:1026B000E15AFF4F608171818281938120E030E097
:1026C0004AEF54E40E941F02DC01CB01F801808331
:1026D0009183A283B383FE01E55AFF4F608171812C
:1026E0008281938120E030E040E85FE30E9425048E
:1026F000882344F4FE01E75AFF4F81E090E0918384
:10270000808364C0FE01E55AFF4F60817181828140
:10271000938120E03FEF4FE757E40E94C50318166E
:102720000CF043C0FE01E15AFF4F6081718182814C
:10273000938120E030E040E251E40E941F02DC017E
:10274000CB018E01075A1F4FBC01CD010E944900E9
:10275000DC01CB01F801918380831FC0FE01E95A9F
:10276000FF4F88EC90E091838083FE01E95AFF4F90
:10277000808191810197F1F7FE01E95AFF4F918322
:102780008083DE01A75ABF4FFE01E75AFF4F8081C9
:102790009181019711969C938E93FE01E75AFF4F0A
:1027A000808191810097D1F627C08E01075A1F4F73
:1027B000FE01E55AFF4F60817181828193810E9401
:1027C0004900DC01CB01F80191838083DE01AB5A23
:1027D000BF4FFE01E75AFF4F808191818D939C93FB
:1027E000FE01EB5AFF4F808191810197F1F7FE01C5
:1027F000EB5AFF4F91838083FE01EA53FF4F8081A4
:1028000060E00E94F817FE01EF5AFF4F80E090E071
:10281000A0E8BFE380839183A283B3838E01035B2F
:102820001F4FFE01EF5AFF4F6081718182819381BA
:1028300020E030E04AEF54E40E941F02DC01CB01AB
:10284000F80180839183A283B383FE01E35BFF4F92
:10285000608171818281938120E030E040E85FE314
:102860000E942504882344F4FE01E55BFF4F81E0CC
:1028700090E09183808364C0FE01E35BFF4F608141
:1028800071818281938120E03FEF4FE757E40E94FE
:10289000C50318160CF043C0FE01EF5AFF4F6081CC
:1028A00071818281938120E030E040E251E40E9416
:1028B0001F02DC01CB018E01055B1F4FBC01CD0166
:1028C0000E944900DC01CB01F801918380831FC085
:1028D000FE01E75BFF4F88EC90E091838083FE016F
:1028E000E75BFF4F808191810197F1F7FE01E75B84
:1028F000FF4F91838083DE01A55BBF4FFE01E55B47
:10290000FF4F80819181019711969C938E93FE01D8
:10291000E55BFF4F808191810097D1F627C08E0142
:10292000055B1F4FFE01E35BFF4F60817181828178
:1029300093810E944900DC01CB01F80191838083DF
:10294000DE01A95BBF4FFE01E55BFF4F80819181F6
:102950008D939C93FE01E95BFF4F808191810197EC
:10296000F1F7FE01E95BFF4F91838083FE01EA539B
:10297000FF4F8081282F30E0C901880F991F820FF7
:10298000931F880F991F880F991FFC01E158FE4F74
:102990008081869586958170882F90E00024969599
:1029A00087950794969587950794982F802D482FA3
:1029B0004068FE01EA53FF4F8081282F30E0C901B3
:1029C000880F991F820F931F880F991F880F991FD7
:1029D000FC01E158FE4F8081869586958695817031
:1029E000882F90E0880F991F82959295907F982765
:1029F000807F9827482BFE01EA53FF4F8081282FC4
:102A000030E0C901880F991F820F931F880F991F0B
:102A1000880F991FFC01E158FE4F808182958F70CD
:102A20008170882F90E082959295907F9827807F83
:102A30009827842BFE01EB53FF4F8083FE01EA535E
:102A4000FF4FDE01AB53BF4F80816C910E94F8179E
:102A5000FE01ED5BFF4F80E090E0A0E8BFE38083E4
:102A60009183A283B3838E01015C1F4FFE01ED5B56
:102A7000FF4F608171818281938120E030E04AEFD5
:102A800054E40E941F02DC01CB01F8018083918392
:102A9000A283B383FE01FF9660817181828193815D
:102AA00020E030E040E85FE30E94250488232CF416
:102AB00081E090E09EAF8DAF46C0FE01FF96608141
:102AC00071818281938120E03FEF4FE757E40E94BC
:102AD000C503181664F5FE01ED5BFF4F608171813F
:102AE0008281938120E030E040E251E40E941F02A5
:102AF000DC01CB01BC01CD010E944900DC01CB010E
:102B00009EAF8DAF0FC088EC90E09CAF8BAF8BADCC
:102B10009CAD0197F1F79CAF8BAF8DAD9EAD01974A
:102B20009EAF8DAF8DAD9EAD009769F716C0FE01CB
:102B3000FF9660817181828193810E944900DC014E
:102B4000CB019EAF8DAF8DAD9EAD9AAF89AF89ADF4
:102B50009AAD0197F1F79AAF89AFFE01EA53FF4FA3
:102B6000808160E00E94F81780E090E0A0E8BFE379
:102B70008DAB9EABAFABB8AF6DA97EA98FA998AD59
:102B800020E030E04AEF54E40E941F02DC01CB0158
:102B900089AB9AABABABBCAB69A97AA98BA99CA951
:102BA00020E030E040E85FE30E94250488232CF415
:102BB00081E090E098AB8FA73FC069A97AA98BA963
:102BC0009CA920E03FEF4FE757E40E94C503181689
:102BD0004CF56DA97EA98FA998AD20E030E040E2C8
:102BE00051E40E941F02DC01CB01BC01CD010E9417
:102BF0004900DC01CB0198AB8FA70FC088EC90E0B7
:102C00009EA78DA78DA59EA50197F1F79EA78DA7DD
:102C10008FA598A9019798AB8FA78FA598A9009722
:102C200069F714C069A97AA98BA99CA90E944900D7
:102C3000DC01CB0198AB8FA78FA598A99CA78BA788
:102C40008BA59CA50197F1F79CA78BA7FE01EA53E2
:102C5000FF4F808160E10E94F81780E090E0A0E8DB
:102C6000BFE38FA398A7A9A7BAA76FA178A589A545
:102C70009AA520E030E04AEF54E40E941F02DC01F4
:102C8000CB018BA39CA3ADA3BEA36BA17CA18DA103
:102C90009EA120E030E040E85FE30E942504882305
:102CA0002CF481E090E09AA389A33FC06BA17CA1A2
:102CB0008DA19EA120E03FEF4FE757E40E94C5039E
:102CC00018164CF56FA178A589A59AA520E030E0EB
:102CD00040E251E40E941F02DC01CB01BC01CD01A6
:102CE0000E944900DC01CB019AA389A30FC088ECA4
:102CF00090E098A38F8F8F8D98A10197F1F798A3FB
:102D00008F8F89A19AA101979AA389A389A19AA1DA
:102D1000009769F714C06BA17CA18DA19EA10E94B0
:102D20004900DC01CB019AA389A389A19AA19E8FB6
:102D30008D8F8D8D9E8D0197F1F79E8F8D8FFE016A
:102D4000EA53FF4F808160E00E94F81780E090E036
:102D5000A0E8BFE3898F9A8FAB8FBC8F698D7A8D86
:102D60008B8D9C8D20E030E04AEF54E40E941F02DE
:102D7000DC01CB018D8B9E8BAF8BB88F6D897E89EB
:102D80008F89988D20E030E040E85FE30E942504C1
:102D900088232CF481E090E09C8B8B8B3FC06D8965
:102DA0007E898F89988D20E03FEF4FE757E40E949E
:102DB000C50318164CF5698D7A8D8B8D9C8D20E09E
:102DC00030E040E251E40E941F02DC01CB01BC0173
:102DD000CD010E944900DC01CB019C8B8B8B0FC085
:102DE00088EC90E09A8B898B89899A890197F1F711
:102DF0009A8B898B8B899C8901979C8B8B8B8B8978
:102E00009C89009769F714C06D897E898F89988D98
:102E10000E944900DC01CB019C8B8B8B8B899C89A8
:102E2000988B8F878F8598890197F1F7988B8F877B
:102E3000FE01EA53FF4F8081282F30E0C901880F3F
:102E4000991F820F931F880F991F880F991FFC01EC
:102E5000E158FE4F808182958695869583708170BA
:102E6000882F90E0880F991F82959295907F9827E0
:102E7000807F9827482F4064FE01EA53FF4F8081EE
:102E8000282F30E0C901880F991F820F931F880FE8
:102E9000991F880F991FFC01E158FE4F8081881F00
:102EA0008827881F882F90E082959295907F982799
:102EB000807F9827842BFE01EB53FF4F8083FE0118
:102EC000EA53FF4FDE01AB53BF4F80816C910E94EC
:102ED000F81780E090E0A0E8BFE38B879C87AD8780
:102EE000BE876B857C858D859E8520E030E04AEF2E
:102EF00054E40E941F02DC01CB018F839887A987CD
:102F0000BA876F81788589859A8520E030E040E82E
:102F10005FE30E94250488232CF481E090E09E83E7
:102F20008D833FC06F81788589859A8520E03FEF4A
:102F30004FE757E40E94C50318164CF56B857C8556
:102F40008D859E8520E030E040E251E40E941F0222
:102F5000DC01CB01BC01CD010E944900DC01CB01A9
:102F60009E838D830FC088EC90E09C838B838B8144
:102F70009C810197F1F79C838B838D819E810197C2
:102F80009E838D838D819E81009769F714C06F8128
:102F9000788589859A850E944900DC01CB019E8352
:102FA0008D838D819E819A83898389819A810197FE
:102FB000F1F79A838983DE01AA53BF4FFE01EA53DA
:102FC000FF4F80818F5F8C93FE01EA53FF4F80811A
:102FD000833010F40C94FD0CCA53DF4F0FB6F894F5
:102FE000DEBF0FBECDBFCF91DF911F910F9108952E
:102FF000DF93CF9300D00F92CDB7DEB78A836B8378
:1030000019828A818330C8F48A81282F30E0C9016F
:10301000880F991F820F931F880F991F880F991F80
:10302000FC01E058FE4F808160E00E9403098A8124
:103030006B810E94CE19898302C082E089838981D5
:103040000F900F900F90CF91DF910895DF93CF9362
:1030500000D00F92CDB7DEB78A836B8319828A8145
:103060008330C8F48A81282F30E0C901880F991F66
:10307000820F931F880F991F880F991FFC01E0583A
:10308000FE4F808161E00E9403098A816B810E946A
:10309000CE19898302C082E0898389810F900F90C5
:1030A0000F90CF91DF9108950F931F93DF93CF93EC
:1030B000CDB7DEB7CF56D0400FB6F894DEBF0FBE07
:1030C000CDBFFE01E559FF4F8083FE01E459FF4F5C
:1030D00040835183628373831E82FE01E459FF4F54
:1030E000608171818281938120E030E040E050E096
:1030F0000E942504882394F5FE01E559FF4F808145
:103100006DE20E942618FE01E459FF4F60E070E076
:1031100080E090E020813181428153810E94C10191
:10312000DC01CB0189839A83AB83BC838E01045974
:103130001F4FFE01E459FF4F60E070E080E090E037
:1031400020813181428153810E94C101DC01CB0188
:10315000F80180839183A283B3830BC0FE01E459FD
:10316000FF4F80819181A281B38189839A83AB8350
:10317000BC838E81082F10E069817A818B819C81CC
:103180000E94B304DC01CB012AE030E0B9010E94C7
:103190009E21282FCE010796FC01E00FF11F20830E
:1031A0008E81482F50E08E81282F30E0CE01079687
:1031B000FC01E20FF31F8081282F205DCE010796CE
:1031C000FC01E40FF51F208369817A818B819C814A
:1031D00020E030E040E251E40E941903DC01CB0121
:1031E00089839A83AB83BC838E818F5F8E83698151
:1031F0007A818B819C810E94B304DC01CB01009712
:1032000009F0B7CF8E8181508D8315C08D81282F15
:10321000332727FD3095CE010796FC01E20FF31FFF
:103220009081FE01E559FF4F8081692F0E94261889
:103230008D8181508D838D81882344F7FE01E4596F
:10324000FF4F60817181828193810E94B304DC0110
:10325000CB01AA2797FDA095BA2FBC01CD010E94F2
:1032600055049B01AC01FE01E459FF4F608171815F
:10327000828193810E94C101DC01CB01BC01CD019F
:103280002FE632E143E85AE30E94C50318160CF01A
:1032900079C0FE01E559FF4F80816EE20E94261839
:1032A0001D826CC0FE01E459FF4F608171818281F3
:1032B00093810E94B304DC01CB01AA2797FDA0955E
:1032C000BA2FBC01CD010E9455049B01AC018E01B7
:1032D00004591F4FFE01E459FF4F608171818281C3
:1032E00093810E94C101DC01CB01F80180839183AD
:1032F000A283B3838E0104591F4FFE01E459FF4F8F
:10330000608171818281938120E030E040E251E46C
:103310000E941F02DC01CB01F80180839183A2830C
:10332000B383FE01E459FF4F6081718182819381F3
:103330000E94B304DC01CB01C096AA2797FDA0959B
:10334000BA2FBC01CD010E945504DC01CB01898359
:103350009A83AB83BC8369817A818B819C810E9433
:103360004900DC01CB01982FFE01E559FF4F808118
:10337000692F0E9426188D818F5F8D838D81843007
:103380000CF490CFC159DF4F0FB6F894DEBF0FBEDB
:10339000CDBFCF91DF911F910F910895DF93CF9310
:1033A00000D000D0CDB7DEB78B836C831A828B81BF
:1033B000282F30E0C901880F991F820F931F880FB3
:1033C000991F880F991FFC01EE57FE4F808161E025
:1033D0000E9403098B81282F30E0C901880F991FB3
:1033E000820F931F880F991F0196880F991FFC0168
:1033F000E158FE4F808160E00E9403098B81282FF5
:1034000030E0C901880F991F820F931F880F991F01
:10341000880F991FFC01E158FE4F808182958695A7
:1034200087708170813089F519822BC08B81282F9C
:1034300030E08981482F50E0C901880F991F820F21
:10344000931F880F991F880F991F840F951FFC01E8
:10345000ED57FE4F40818C81282F30E08981882FE5
:1034600090E0B90102C0759567958A95E2F7CB01A6
:10347000982F9170842F692F0E94030989818F5F93
:1034800089838981883090F24AC08B81282F30E06F
:10349000C901880F991F820F931F880F991F880FEA
:1034A000991FFC01E158FE4F8081829586958770B7
:1034B0008170882391F584E089832BC08B81282F2C
:1034C00030E08981482F50E0C901880F991F820F91
:1034D000931F880F991F880F991F840F951FFC0158
:1034E000ED57FE4F40818C81282F30E08981882F55
:1034F00090E0B90102C0759567958A95E2F7CB0116
:10350000982F9170842F692F0E94030989818F5F02
:1035100089838981883090F202C084E08A838B811C
:10352000282F30E0C901880F991F820F931F880F41
:10353000991F880F991FFC01EE57FE4F808160E0B4
:103540000E9403098A810F900F900F900F90CF91E6
:10355000DF910895DF93CF9300D000D000D0CDB796
:10356000DEB78B837D836C834E831A828B8183309D
:1035700040F58E81893028F58E81882F90E008965D
:10358000880F991F880F991F880F991F982F8B817B
:10359000692F0E94F817198210C08981282F30E006
:1035A0008C819D81FC01E20FF31F90818B81692F3B
:1035B0000E94261889818F5F89838981883068F30A
:1035C00002C082E08A838A8126960FB6F894DEBF15
:1035D0000FBECDBFCF91DF910895DF93CF9300D081
:1035E00000D00F92CDB7DEB78A836B8319828A81B0
:1035F000833008F07CC08B81282F30E03D832C8302
:103600008C819D810097D9F12C813D81213031053C
:1036100009F06AC08A81882F90E0880F991FFC0109
:10362000EC55FE4F80818A3A71F48A81882F90E0B0
:10363000880F991FFC01ED55FE4F808161E00E94CB
:103640000309898356C08A81882F90E0880F991FCB
:10365000FC01EC55FE4F8081853571F48A81882FFD
:1036600090E0880F991FFC01ED55FE4F808160E0CE
:103670000E94030989833DC084E089833AC08A811E
:10368000882F90E0880F991FFC01EC55FE4F808138
:103690008A3A71F48A81882F90E0880F991FFC0183
:1036A000ED55FE4F808160E00E940309898321C0AF
:1036B0008A81882F90E0880F991FFC01EC55FE4FFE
:1036C0008081853571F48A81882F90E0880F991F59
:1036D000FC01ED55FE4F808161E00E940309898362
:1036E00008C084E0898305C082E0898302C082E04B
:1036F000898389810F900F900F900F900F90CF9139
:10370000DF910895DF93CF9300D0CDB7DEB78A83E2
:1037100019828A81833068F48A81882F90E0880F2B
:10372000991FFC01ED55FE4F80810E946D0C89832D
:1037300002C082E0898389810F900F90CF91DF9141
:103740000895DF93CF9300D00F92CDB7DEB78A8371
:1037500019828A81882359F48A81882F90E0FC019C
:10376000E755FE4F808161E00E94030902C082E0BC
:1037700089830F900F900F90CF91DF910895DF9381
:10378000CF9300D00F92CDB7DEB78A8319828A819A
:10379000882359F48A81882F90E0FC01E755FE4F79
:1037A000808160E00E94030902C082E089830F905B
:1037B0000F900F90CF91DF910895DF93CF93CDB706
:1037C000DEB7EDE2F0E080E48083CF91DF910895F1
:1037D000DF93CF930F92CDB7DEB78983EFE2F0E0AE
:1037E00089818083EEE2F0E080818823DCF70F900E
:1037F000CF91DF910895DF93CF93CDB7DEB7EEE29F
:10380000F0E080818823DCF7EFE2F0E08081CF9167
:10381000DF910895DF93CF930F92CDB7DEB7898301
:10382000EFE2F0E08981808382E08093B1010F9024
:10383000CF91DF910895DF93CF93CDB7DEB780911D
:10384000B001CF91DF910895DF93CF930F92CDB761
:10385000DEB789838981813041F4ADE2B0E0EDE2E9
:10386000F0E0808180688C9307C0ADE2B0E0EDE2CB
:10387000F0E080818F778C930F90CF91DF91089546
:103880001F920F920FB60F9211248F939F93EF9375
:10389000FF93DF93CF93CDB7DEB7EEE2F0E0808108
:1038A0008295869586958370882F90E081709070C0
:1038B000882321F083E08093B10103C081E08093ED
:1038C000B101EFE2F0E080818093B001CF91DF9110
:1038D000FF91EF919F918F910F900FBE0F901F90CE
:1038E0001895DF93CF93CDB7DEB7AFE4B0E0EFE448
:1038F000F0E080818E7F8C93AFE4B0E0EFE4F0E005
:10390000808182608C93AEE4B0E0EEE4F0E08081F0
:1039100088608C93AEE4B0E0EEE4F0E080818061FA
:103920008C93E6E4F0E083EC99E091838083AFE44C
:10393000B0E0EFE4F0E0808180688C93AFE4B0E029
:10394000EFE4F0E0808180628C93AEE4B0E0EEE4DE
:10395000F0E08081887F8C93AEE4B0E0EEE4F0E0AC
:10396000808183608C93ECE4F0E011821082EAE4C1
:10397000F0E011821082E8E4F0E011821082A9E503
:10398000B0E0E9E5F0E080818F7D8C93A9E5B0E0BF
:10399000E9E5F0E080818F7E8C93A9E5B0E0E9E570
:1039A000F0E08081877F8C93A9E5B0E0E9E5F0E065
:1039B00080818B7F8C93CF91DF910895DF93CF939C
:1039C00000D0CDB7DEB79A838983ECE4F0E089813B
:1039D0009A81918380830F900F90CF91DF9108950A
:1039E000DF93CF9300D0CDB7DEB79A838983EAE423
:1039F000F0E089819A81918380830F900F90CF911D
:103A0000DF910895DF93CF9300D0CDB7DEB79A83CF
:103A10008983E8E4F0E089819A81918380830F9023
:103A20000F90CF91DF910895DF93CF93CDB7DEB79D
:103A3000A9E5B0E0E9E5F0E0808184608C93CF9166
:103A4000DF910895DF93CF93CDB7DEB7A9E5B0E05E
:103A5000E9E5F0E080818B7F8C93CF91DF91089531
:103A6000DF93CF93CDB7DEB7A9E5B0E0E9E5F0E0AD
:103A7000808180618C93CF91DF910895DF93CF9304
:103A8000CDB7DEB7A9E5B0E0E9E5F0E080818F7E53
:103A90008C93CF91DF910895DF93CF93CDB7DEB7AD
:103AA000A9E5B0E0E9E5F0E0808188608C93CF91F2
:103AB000DF910895DF93CF93CDB7DEB7A9E5B0E0EE
:103AC000E9E5F0E08081877F8C93CF91DF910895C5
:103AD000DF93CF93CDB7DEB7A9E5B0E0E9E5F0E03D
:103AE000808180628C93CF91DF910895DF93CF9393
:103AF000CDB7DEB7A9E5B0E0E9E5F0E080818F7DE4
:103B00008C93CF91DF910895DF93CF9300D0CDB701
:103B1000DEB79A83898389819A819093B5018093D6
:103B2000B4010F900F90CF91DF910895DF93CF9361
:103B300000D0CDB7DEB79A83898389819A8190932B
:103B4000B7018093B6010F900F90CF91DF91089548
:103B5000DF93CF9300D0CDB7DEB79A838983898175
:103B60009A819093B9018093B8010F900F90CF91F3
:103B7000DF910895DF93CF9300D0CDB7DEB79A835E
:103B8000898389819A819093B3018093B2010F90C8
:103B90000F90CF91DF910895DF93CF93CDB7DEB72C
:103BA000ECE4F0E080819181CF91DF9108951F9244
:103BB0000F920FB60F9211242F933F934F935F9361
:103BC0006F937F938F939F93AF93BF93EF93FF93E5
:103BD000DF93CF93CDB7DEB7E091B401F091B5019B
:103BE0000995CF91DF91FF91EF91BF91AF919F9197
:103BF0008F917F916F915F914F913F912F910F9096
:103C00000FBE0F901F9018951F920F920FB60F9234
:103C100011242F933F934F935F936F937F938F93D1
:103C20009F93AF93BF93EF93FF93DF93CF93CDB762
:103C3000DEB7E091B601F091B7010995CF91DF9120
:103C4000FF91EF91BF91AF919F918F917F916F9174
:103C50005F914F913F912F910F900FBE0F901F904A
:103C600018951F920F920FB60F9211242F933F9326
:103C70004F935F936F937F938F939F93AF93BF9374
:103C8000EF93FF93DF93CF93CDB7DEB7E091B80109
:103C9000F091B9010995CF91DF91FF91EF91BF911B
:103CA000AF919F918F917F916F915F914F913F91D4
:103CB0002F910F900FBE0F901F9018951F920F928B
:103CC0000FB60F9211242F933F934F935F936F93EF
:103CD0007F938F939F93AF93BF93EF93FF93DF9364
:103CE000CF93CDB7DEB7E091B201F091B301099562
:103CF000CF91DF91FF91EF91BF91AF919F918F9104
:103D00007F916F915F914F913F912F910F900FBED7
:103D10000F901F901895CF92DF92EF92FF920F9322
:103D20001F93DF93CF9300D000D0CDB7DEB7698368
:103D30007A838B839C830F2EFAE4CF2EDD24F02D23
:103D400069817A818B819C8120E030E048EC52E4EB
:103D50000E941903DC01CB017C018D01E6E4F0E057
:103D600080819181CC01A0E0B0E0BC01CD010E9436
:103D700007059B01AC01C801B7010E941F02DC01CD
:103D8000CB01BC01CD010E944900DC01CB01F60151
:103D9000918380830F900F900F900F90CF91DF91C0
:103DA0001F910F91FF90EF90DF90CF900895CF92E9
:103DB000DF92EF92FF920F931F93DF93CF9300D088
:103DC00000D0CDB7DEB769837A838B839C830F2EB7
:103DD000F8E4CF2EDD24F02D69817A818B819C81DE
:103DE00020E030E048EC52E40E941903DC01CB01F2
:103DF0007C018D01E6E4F0E080819181CC01A0E0BE
:103E0000B0E0BC01CD010E9407059B01AC01C801D7
:103E1000B7010E941F02DC01CB01BC01CD010E9451
:103E20004900DC01CB01F601918380830F900F9054
:103E30000F900F90CF91DF911F910F91FF90EF9016
:103E4000DF90CF900895DF93CF93CDB7DEB7C45402
:103E5000D0400FB6F894DEBF0FBECDBF0E94EC0875
:103E600080E061E00E94950A0E94DD1B0E947507B8
:103E70000E94BF070E94711C0E94EA0C89E161E068
:103E80000E94950A8FE090E0988F8F8B8FE090E0F2
:103E90009E8B8D8B81E08E8F188A1F8603C00E94B7
:103EA000FB1B8F878F858823D1F3CE014F969FAB65
:103EB0008EABE0E6F0E0F9AFE8AFF7E0FAAFE8ADDF
:103EC000F9AD008088AD99AD019699AF88AFEEA9A4
:103ED000FFA900828EA99FA901969FAB8EAB9AADD8
:103EE00091509AAFEAADEE2351F7CE0186969CAF82
:103EF0008BAFE7E6F0E0FEAFEDAFF9E0FFAFEDAD81
:103F0000FEAD00808DAD9EAD01969EAF8DAFEBAD49
:103F1000FCAD00828BAD9CAD01969CAF8BAF9FAD8D
:103F200091509FAFEFADEE2351F7CE018F962296C1
:103F30009FAF8EAF2297E0E7F0E02496FFAFEEAFA1
:103F40002497F7E02596FFAF25972496EEADFFADB9
:103F50002497008024968EAD9FAD249701962496D9
:103F60009FAF8EAF24972296EEADFFAD22970082D1
:103F700022968EAD9FAD2297019622969FAF8EAF6F
:103F8000229725969FAD2597915025969FAF25970F
:103F90002596EFAD2597EE23C1F69E01225E3F4F99
:103FA00089E1B9010E940E0A8E8D8823F1F480E028
:103FB0000E94BF1B80E061E00E94F81780E060E093
:103FC0000E94ED1A81E060E00E94ED1A82E060E05C
:103FD0000E94ED1A07C09E01225E3F4F89E1B901A0
:103FE0000E940E0A8E8D8823B1F380E00E94920811
:103FF00080E090E0A8ECB2E48B879C87AD87BE8719
:104000006B857C858D859E8520E030E04AEF54E409
:104010000E941F02DC01CB018F839887A987BA8792
:104020006F81788589859A8520E030E040E85FE3FC
:104030000E94250488232CF481E090E09E838D83E8
:104040003FC06F81788589859A8520E03FEF4FE7F3
:1040500057E40E94C50318164CF56B857C858D8549
:104060009E8520E030E040E251E40E941F02DC0126
:10407000CB01BC01CD010E944900DC01CB019E8334
:104080008D830FC088EC90E09C838B838B819C8117
:104090000197F1F79C838B838D819E8101979E838D
:1040A0008D838D819E81009769F714C06F8178851B
:1040B00089859A850E944900DC01CB019E838D830E
:1040C0008D819E819A83898389819A810197F1F7F5
:1040D0009A8389838F89988D9E8B8D8B0E94090886
:1040E000988F8F8B8F89988D0E945708DC01CB01A8
:1040F000898B9A8BAB8BBC8B8F89988D8F35910573
:1041000068F480E061E00E94ED1A81E061E00E94C5
:10411000ED1A82E061E00E94ED1A32C08F89988D1D
:10412000F2E081309F0768F480E060E00E94ED1AC1
:1041300081E061E00E94ED1A82E061E00E94ED1AE8
:104140001FC08F89988D23E0843A920768F480E03D
:1041500060E00E94ED1A81E060E00E94ED1A82E0CA
:1041600061E00E94ED1A0CC080E060E00E94ED1A50
:1041700081E060E00E94ED1A82E060E00E94ED1AAA
:10418000CE018F9660EC0E94472180E066EC0E9491
:10419000F81729893A894B895C8980E0BA01A9011D
:1041A0000E9454182D893E898F89988D28173907C8
:1041B00029F0CE018F9660EC0E94472181E00E9499
:1041C00092080E9409089093BB018093BA018091E4
:1041D000BA019091BB010E945708DC01CB018A8F84
:1041E0009B8FAC8FBD8FCE014F9660E80E94472118
:1041F00080E066E80E94F8176A8D7B8D8C8D9D8D1E
:1042000020E030E048EC52E40E941F02DC01CB01C8
:10421000BC01CD010E944900DC01CB01882F90E058
:10422000A0E0B0E0BC01CD010E9407059B01AC01FC
:1042300080E0BA01A9010E9454186A8D7B8D8C8D93
:104240009D8D20E030E048EC52E40E941F02DC012A
:10425000CB01BC01CD010E944900DC01CB018D31B5
:1042600058F080E00E94A11B80E040E050E060E256
:1042700071E40E94782191CE80E00E94BF1B80E013
:1042800040E050E060E070E00E94782186CEDF934D
:10429000CF9300D000D0CDB7DEB79B838A836C83E9
:1042A000198280E06C810E94F81710C08981282F44
:1042B00030E08A819B81FC01E20FF31F908180E056
:1042C000692F0E94261889818F5F89838981282F11
:1042D00030E08A819B81FC01E20FF31F80818823FB
:1042E00029F70F900F900F900F90CF91DF910895C5
:1042F000DF93CF9300D000D00F92CDB7DEB7898384
:104300004A835B836C837D838981882F90E0880F4B
:10431000991FFC01E655FE4F0190F081E02D8A8146
:104320009B81AC81BD81BC01CD0109950F900F909F
:104330000F900F900F90CF91DF91089597FB092E6A
:1043400007260AD077FD04D00CD006D000201AF43E
:10435000709561957F4F0895F6F7909581959F4FE1
:104360000895AA1BBB1B51E107C0AA1FBB1FA617BC
:10437000B70710F0A61BB70B881F991F5A95A9F70E
:1043800080959095BC01CD0108952F923F924F9258
:104390005F926F927F928F929F92AF92BF92CF92D5
:1043A000DF92EF92FF920F931F93CF93DF93CDB7DE
:1043B000DEB7CA1BDB0B0FB6F894DEBF0FBECDBF56
:1043C00009942A88398848885F846E847D848C8427
:1043D0009B84AA84B984C884DF80EE80FD800C8130
:1043E0001B81AA81B981CE0FD11D0FB6F894DEBF13
:0C43F0000FBECDBFED010895F894FFCF83
:1043FC0054454D503A20002056616C75653A2000AA
:10440C00566F6C743A2000000000000000000000A1
:10441C00010202030303030404040404040404055A
:10442C00050505050505050505050505050505062F
:10443C000606060606060606060606060606060610
:10444C0006060606060606060606060606060607FF
:10445C0007070707070707070707070707070707E0
:10446C0007070707070707070707070707070707D0
:10447C0007070707070707070707070707070707C0
:10448C0007070707070707070707070707070708AF
:10449C000808080808080808080808080808080890
:1044AC000808080808080808080808080808080880
:1044BC000808080808080808080808080808080870
:1044CC000808080808080808080808080808080860
:1044DC000808080808080808080808080808080850
:1044EC000808080808080808080808080808080840
:1044FC000808080808080808080808080808080830
:10450C0008080808080808080808080808080865C2
:10451C0010111213141516171B1E180000000000A2
:10452C00000000000000000000000000000000007F
:0C453C0000000008AA09AA0AAA1F8B1E92
:00000001FF
